:020000040000FA
:0400000081EF00F09C
:100008001101F900F900F9004000F9004000F90079
:10001800F900F900F900F900F900F900F900F90010
:10002800F900400040004000F900F900F900F9002B
:10003800F900F900F9000A01B000F900F900F90027
:10004800F900F900F900F90040004000F900F90052
:10005800F900F900F9004000F900F900F900F90089
:10006800F900F900F900F900F900F900F900F900C0
:10007800F900F900F900F9004000F900F900F90069
:10008800F900F900F900F900F900F900F900F900A0
:10009800F900F900F900F9004000F90040004000BB
:1000A800F900F900F900F900F900F900F900F90080
:1000B800F900F900F900F900F900F900F900F90070
:1000C800F900F900F900F900F900F900F900F90060
:1000D800F900F900F900F900F900F900F900F90050
:1000E8004000F900F900F9004000400040004000DD
:1000F800F900F900F900F900FF0003EF01F080832F
:1001080086898C8F9295989B9EA2A5A7AAADB0B31D
:10011800B6B9BCBEC1C4C6C9CBCED0D3D5D7DADC3C
:10012800DEE0E2E4E6E8EAEBEDEEF0F1F3F4F5F612
:10013800F8F9FAFAFBFCFDFDFEFEFEFFFFFFFFFFEC
:10014800FFFFFEFEFEFDFDFCFBFAFAF9F8F6F5F4FA
:10015800F3F1F0EEEDEBEAE8E6E4E2E0DEDCDAD734
:10016800D5D3D0CECBC9C6C4C1BEBCB9B6B3B0AD69
:10017800AAA7A5A29E9B9895928F8C898683807C3E
:10018800797673706D6A6764615D5A5855524F4C41
:10019800494643413E3B393634312F2C2A28252302
:1001A800211F1D1B1917151412110F0E0C0B0A090C
:1001B8000706050504030202010101000000000012
:1001C80000000101010202030405050607090A0BE4
:1001D8000C0E0F1112141517191B1D1F212325288A
:1001E8002A2C2F313436393B3E414346494C4F5235
:1001F80055585A5D6164676A6D707376797C060E2E
:10020800F66E010EF76E000EF86E01EE00F210EEBB
:1002180000F10900F5C4EEF4E550E150FAE1E250CE
:10022800F8E1FA0EF66E020EF76E000EF86E01EEA9
:1002380060F110EE38F00900F5C4EEF4E550E15035
:10024800FAE101EE3AF1140EEE6AE806FDE1040166
:10025800080E5D6F000E5E6F000E5F6F0001B3EF5A
:1002680001F003011E91800E035CD8A03EEF01F05F
:1002780040EF01F043EF01F07F0E036E0268021CAD
:10028800056E031C066E06504C6E05C54BF56100E5
:1002980030F51DF361002CF51CF34A900450D8B4D6
:1002A80058EF01F05AEF01F05BEF01F04A80B19886
:0602B800A1881E81120066
:1002C000610030F51DF361002CF51CF3000E49248C
:1002D000D96EDA6A060EDA22DF5000017D6F040E55
:1002E0004926B1984AB077EF01F079EF01F07CEF41
:1002F00001F0A19803011E9111000002000200020A
:1003000000020002000200040002000200020002DB
:100310000002000200043C003C00280028002400E9
:10032000240028002D002D002F002F00350035005F
:100330003C00000E426E000E436E000E446E000E36
:10034000456E000E3E6E000E3F6E000E406E000EBB
:10035000416E7D0E0301236F010E266FB196F00EE4
:10036000246FA18612004D8E24EC02F0FFEC01F008
:100370001DEC02F099EC01F0C9EC01F04D9EDFECB0
:1003800001F0BE9E0AEC02F0BE8EBFEF01F081EFDD
:1003900000F0C00EBE16900E03011A6F540E1B6FB4
:1003A000000E1F6F010E216F310E1E6F000E036EC7
:1003B000100E026E010E046E35EC01F0120021EEFB
:1003C0007CF111EE02F11B0EDBC4E3F4E806FCE263
:1003D00021EE60F111EE1EF11B0EDBC4E3F4E80622
:1003E000FCE21200610060F301F5010E3A26000EF6
:1003F0003B223C223D22610004F4D8F41100000E9F
:100400000401006F000EC66EA00E00017F6F000E8B
:100410007D6F12004D8C4DBC10EF02F012EF02F018
:060420000BEF02F01200D8
:10042800B1964D9C010E4226000E432244224522DD
:0A0438001100D68AD68ED68C120071
:06044400AE901100120051
:020000040020DA
:10000000FF0FFF0FFF0FFF0FFF0FFF0FFF0FFF0F80
:10001000FF0FFF0FFF0FFF0FFF0FFF0FFF0FFF0F70
:020000040030CA
:0A0000008CFEFFFC9FFFFFFFFFFFD7
:00000001FF
