:020000040000FA
:04000000FEEFFFF020
:020000040001F9
:10FF440012001200120001EE01F10D0EEE6AE80635
:10FF5400FDE10001C9EFFFF0000ECE6E000EC66E8B
:10FF6400000E0401006F800EBE6E1200000E096EBA
:10FF7400000E0A6E000E0B6E000E0C6E000E056E67
:10FF8400000E066E000E076E000E086E1200048E40
:10FF9400A2ECFFF0B8ECFFF0AEECFFF0A4ECFFF045
:10FFA400DAECFFF0A3ECFFF0D2EFFFF0FEEFFFF08E
:10FFB400BE28BE6E800E0E6E1A0E0F6E060E106EEA
:10FFC400000E116EF2EFFFF0FF0E0E240E6EFF0E08
:10FFD4000F200F6EFF0E1020106EFF0E1120116EF9
:10FFE4000E500F1010101110D8A4FBEFFFF0FDEF0E
:0CFFF400FFF0E6EFFFF01200A5EFFFF0B9
:020000040020DA
:10000000FF0FFF0FFF0FFF0FFF0FFF0FFF0FFF0F80
:10001000FF0FFF0FFF0FFF0FFF0FFF0FFF0FFF0F70
:020000040030CA
:0A0000008CFEFFFC9FFFFFFFFFFFD7
:00000001FF
