:020000040000FA
:04000000FEEFFFF020
:020000040001F9
:10FE9E0012001200010204081020000ECE6E000E99
:10FEAE00C66E000E0401006F1200900E03011A6F51
:10FEBE00540E1B6F800EBE6E1200000E096E000EE9
:10FECE000A6E000E0B6E000E0C6E000E056E000E0E
:10FEDE00066E000E076E000E086E120003011A5118
:10FEEE007F0B1A6F161C186E171C196E610060F4CA
:10FEFE0018F31950196FB1507F0BB16E1A5180095A
:10FF0E001A6F1200A20EF66EFE0EF76E010EF86E4E
:10FF1E0001EE10F110EE06F00900F5C4EEF4E55016
:10FF2E00E150FAE101EE01F10F0EEE6AE806FDE195
:10FF3E000001A2EFFFF0048E4FECFFF064ECFFF037
:10FF4E0054ECFFF05CECFFF0C0ECFFF050ECFFF077
:10FF5E00030E176EE80E166E75ECFFF0B1AEBAEF2B
:10FF6E00FFF0BCEFFFF0B5EFFFF0ABEFFFF0FEEFF1
:10FF7E00FFF0010E1C241C6E000E1D201D6E21EEC6
:10FF8E0010F111EE16F1050EDBC4E3F4E806FCE207
:10FF9E001D5009E1C80E1C5CD8A0D8EFFFF0DAEFB7
:10FFAE00FFF0EFEFFFF0000E1D6E000E1C6E800EC8
:10FFBE00BE6E160E0D24D96E050E0E20DA6EDF50B3
:10FFCE00BE10BE6E010E0D240D6E000E0E200E6EB6
:10FFDE00060E0D180E10D8A4F7EFFFF0F9EFFFF094
:10FFEE00FDEFFFF0000E0E6E000E0D6E120089EF8B
:02FFFE00FFF012
:020000040020DA
:10000000FF0FFF0FFF0FFF0FFF0FFF0FFF0FFF0F80
:10001000FF0FFF0FFF0FFF0FFF0FFF0FFF0FFF0F70
:020000040030CA
:0A0000008CFEFFFC9FFFFFFFFFFFD7
:00000001FF
